{
  "address": "0x8f0774909DdBFD0B399b15a527057B7a4caf93dc",
  "abi": [
    {
      "anonymous": false,
      "inputs": [
        {
          "indexed": true,
          "internalType": "uint256",
          "name": "bountyId",
          "type": "uint256"
        },
        {
          "indexed": true,
          "internalType": "address",
          "name": "creator",
          "type": "address"
        },
        {
          "indexed": false,
          "internalType": "uint256",
          "name": "amount",
          "type": "uint256"
        }
      ],
      "name": "BountyCreated",
      "type": "event"
    },
    {
      "anonymous": false,
      "inputs": [
        {
          "indexed": true,
          "internalType": "uint256",
          "name": "bountyId",
          "type": "uint256"
        },
        {
          "indexed": true,
          "internalType": "address",
          "name": "receiver",
          "type": "address"
        },
        {
          "indexed": false,
          "internalType": "uint256",
          "name": "amount",
          "type": "uint256"
        }
      ],
      "name": "BountyPaid",
      "type": "event"
    },
    {
      "inputs": [
        {
          "internalType": "uint256",
          "name": "",
          "type": "uint256"
        }
      ],
      "name": "bounties",
      "outputs": [
        {
          "internalType": "address",
          "name": "creator",
          "type": "address"
        },
        {
          "internalType": "uint256",
          "name": "amount",
          "type": "uint256"
        },
        {
          "internalType": "bool",
          "name": "isPaid",
          "type": "bool"
        }
      ],
      "stateMutability": "view",
      "type": "function"
    },
    {
      "inputs": [
        {
          "internalType": "uint256",
          "name": "_bountyId",
          "type": "uint256"
        }
      ],
      "name": "createBounty",
      "outputs": [],
      "stateMutability": "payable",
      "type": "function"
    },
    {
      "inputs": [
        {
          "internalType": "uint256",
          "name": "_bountyId",
          "type": "uint256"
        },
        {
          "internalType": "address",
          "name": "_receiver",
          "type": "address"
        }
      ],
      "name": "executePayout",
      "outputs": [],
      "stateMutability": "nonpayable",
      "type": "function"
    }
  ],
  "transactionHash": "0x8c58ef50056a68af99643790bd2545a866dad1a1a1ef5706b42eea95bc8c8b66",
  "args": [],
  "numDeployments": 1,
  "solcInputHash": "2752240d217612575fd7dfa6687e478e",
  "bytecode": "0x608060405234801561001057600080fd5b506108ea806100206000396000f3fe6080604052600436106100345760003560e01c80633f28e9fb14610039578063bd35e66914610055578063dc2f87441461007e575b600080fd5b610053600480360381019061004e919061052b565b6100bd565b005b34801561006157600080fd5b5061007c600480360381019061007791906105b6565b6102b0565b005b34801561008a57600080fd5b506100a560048036038101906100a0919061052b565b610499565b6040516100b49392919061062f565b60405180910390f35b60003411610100576040517f08c379a00000000000000000000000000000000000000000000000000000000081526004016100f7906106e9565b60405180910390fd5b600073ffffffffffffffffffffffffffffffffffffffff1660008083815260200190815260200160002060000160009054906101000a900473ffffffffffffffffffffffffffffffffffffffff1673ffffffffffffffffffffffffffffffffffffffff16146101a4576040517f08c379a000000000000000000000000000000000000000000000000000000000815260040161019b9061077b565b60405180910390fd5b60405180606001604052803373ffffffffffffffffffffffffffffffffffffffff1681526020013481526020016000151581525060008083815260200190815260200160002060008201518160000160006101000a81548173ffffffffffffffffffffffffffffffffffffffff021916908373ffffffffffffffffffffffffffffffffffffffff1602179055506020820151816001015560408201518160020160006101000a81548160ff0219169083151502179055509050503373ffffffffffffffffffffffffffffffffffffffff16817f1b5e39b039983ddb5862b33842ac157179867c6df1a61f69c50465fd14017f6e346040516102a5919061079b565b60405180910390a350565b3373ffffffffffffffffffffffffffffffffffffffff1660008084815260200190815260200160002060000160009054906101000a900473ffffffffffffffffffffffffffffffffffffffff1673ffffffffffffffffffffffffffffffffffffffff1614610353576040517f08c379a000000000000000000000000000000000000000000000000000000000815260040161034a90610828565b60405180910390fd5b60008083815260200190815260200160002060020160009054906101000a900460ff16156103b6576040517f08c379a00000000000000000000000000000000000000000000000000000000081526004016103ad90610894565b60405180910390fd5b6000806000848152602001908152602001600020600101549050600160008085815260200190815260200160002060020160006101000a81548160ff0219169083151502179055508173ffffffffffffffffffffffffffffffffffffffff166108fc829081150290604051600060405180830381858888f19350505050158015610444573d6000803e3d6000fd5b508173ffffffffffffffffffffffffffffffffffffffff16837f07e339a02227d9329089b11d9cdeea1af6caea87244864b70935aca91d7dc7fd8360405161048c919061079b565b60405180910390a3505050565b60006020528060005260406000206000915090508060000160009054906101000a900473ffffffffffffffffffffffffffffffffffffffff16908060010154908060020160009054906101000a900460ff16905083565b600080fd5b6000819050919050565b610508816104f5565b811461051357600080fd5b50565b600081359050610525816104ff565b92915050565b600060208284031215610541576105406104f0565b5b600061054f84828501610516565b91505092915050565b600073ffffffffffffffffffffffffffffffffffffffff82169050919050565b600061058382610558565b9050919050565b61059381610578565b811461059e57600080fd5b50565b6000813590506105b08161058a565b92915050565b600080604083850312156105cd576105cc6104f0565b5b60006105db85828601610516565b92505060206105ec858286016105a1565b9150509250929050565b6105ff81610578565b82525050565b61060e816104f5565b82525050565b60008115159050919050565b61062981610614565b82525050565b600060608201905061064460008301866105f6565b6106516020830185610605565b61065e6040830184610620565b949350505050565b600082825260208201905092915050565b7f426f756e747920616d6f756e74206d757374206265206772656174657220746860008201527f616e207a65726f00000000000000000000000000000000000000000000000000602082015250565b60006106d3602783610666565b91506106de82610677565b604082019050919050565b60006020820190508181036000830152610702816106c6565b9050919050565b7f426f756e74792077697468207468697320494420616c7265616479206578697360008201527f7473000000000000000000000000000000000000000000000000000000000000602082015250565b6000610765602283610666565b915061077082610709565b604082019050919050565b6000602082019050818103600083015261079481610758565b9050919050565b60006020820190506107b06000830184610605565b92915050565b7f4f6e6c79207468652063726561746f722063616e20657865637574652070617960008201527f6f75740000000000000000000000000000000000000000000000000000000000602082015250565b6000610812602383610666565b915061081d826107b6565b604082019050919050565b6000602082019050818103600083015261084181610805565b9050919050565b7f426f756e747920697320616c7265616479207061696400000000000000000000600082015250565b600061087e601683610666565b915061088982610848565b602082019050919050565b600060208201905081810360008301526108ad81610871565b905091905056fea2646970667358221220df9131d93b63e3bfd010defddcefc0408c981874b64def936f64f82db05f624864736f6c63430008180033",
  "devdoc": {
    "kind": "dev",
    "methods": {},
    "version": 1
  },
  "userdoc": {
    "kind": "user",
    "methods": {},
    "version": 1
  },
  "storageLayout": {
    "storage": [
      {
        "astId": 13,
        "contract": "contracts/BountyContract.sol:BountyContract",
        "label": "bounties",
        "offset": 0,
        "slot": "0",
        "type": "t_mapping(t_uint256,t_struct(Bounty)8_storage)"
      }
    ],
    "types": {
      "t_address": {
        "encoding": "inplace",
        "label": "address",
        "numberOfBytes": "20"
      },
      "t_bool": {
        "encoding": "inplace",
        "label": "bool",
        "numberOfBytes": "1"
      },
      "t_mapping(t_uint256,t_struct(Bounty)8_storage)": {
        "encoding": "mapping",
        "key": "t_uint256",
        "label": "mapping(uint256 => struct BountyContract.Bounty)",
        "numberOfBytes": "32",
        "value": "t_struct(Bounty)8_storage"
      },
      "t_struct(Bounty)8_storage": {
        "encoding": "inplace",
        "label": "struct BountyContract.Bounty",
        "members": [
          {
            "astId": 3,
            "contract": "contracts/BountyContract.sol:BountyContract",
            "label": "creator",
            "offset": 0,
            "slot": "0",
            "type": "t_address"
          },
          {
            "astId": 5,
            "contract": "contracts/BountyContract.sol:BountyContract",
            "label": "amount",
            "offset": 0,
            "slot": "1",
            "type": "t_uint256"
          },
          {
            "astId": 7,
            "contract": "contracts/BountyContract.sol:BountyContract",
            "label": "isPaid",
            "offset": 0,
            "slot": "2",
            "type": "t_bool"
          }
        ],
        "numberOfBytes": "96"
      },
      "t_uint256": {
        "encoding": "inplace",
        "label": "uint256",
        "numberOfBytes": "32"
      }
    }
  }
}